{
  "_format": "hh-sol-artifact-1",
  "contractName": "Mint409",
  "sourceName": "contracts/Mint409.sol",
  "abi": [
    {
      "inputs": [
        {
          "internalType": "string",
          "name": "_baseURI",
          "type": "string"
        },
        {
          "internalType": "string",
          "name": "collectionURI",
          "type": "string"
        }
      ],
      "stateMutability": "nonpayable",
      "type": "constructor"
    },
    {
      "anonymous": false,
      "inputs": [
        {
          "indexed": true,
          "internalType": "address",
          "name": "owner",
          "type": "address"
        },
        {
          "indexed": true,
          "internalType": "address",
          "name": "approved",
          "type": "address"
        },
        {
          "indexed": true,
          "internalType": "uint256",
          "name": "tokenId",
          "type": "uint256"
        }
      ],
      "name": "Approval",
      "type": "event"
    },
    {
      "anonymous": false,
      "inputs": [
        {
          "indexed": true,
          "internalType": "address",
          "name": "owner",
          "type": "address"
        },
        {
          "indexed": true,
          "internalType": "address",
          "name": "operator",
          "type": "address"
        },
        {
          "indexed": false,
          "internalType": "bool",
          "name": "approved",
          "type": "bool"
        }
      ],
      "name": "ApprovalForAll",
      "type": "event"
    },
    {
      "anonymous": false,
      "inputs": [
        {
          "indexed": true,
          "internalType": "address",
          "name": "previousOwner",
          "type": "address"
        },
        {
          "indexed": true,
          "internalType": "address",
          "name": "newOwner",
          "type": "address"
        }
      ],
      "name": "OwnershipTransferred",
      "type": "event"
    },
    {
      "anonymous": false,
      "inputs": [
        {
          "indexed": true,
          "internalType": "address",
          "name": "from",
          "type": "address"
        },
        {
          "indexed": true,
          "internalType": "address",
          "name": "to",
          "type": "address"
        },
        {
          "indexed": true,
          "internalType": "uint256",
          "name": "tokenId",
          "type": "uint256"
        }
      ],
      "name": "Transfer",
      "type": "event"
    },
    {
      "anonymous": false,
      "inputs": [
        {
          "indexed": true,
          "internalType": "address",
          "name": "owner",
          "type": "address"
        },
        {
          "indexed": false,
          "internalType": "uint256",
          "name": "id",
          "type": "uint256"
        }
      ],
      "name": "newTokenMinted",
      "type": "event"
    },
    {
      "inputs": [
        {
          "internalType": "address",
          "name": "to",
          "type": "address"
        },
        {
          "internalType": "uint256",
          "name": "tokenId",
          "type": "uint256"
        }
      ],
      "name": "approve",
      "outputs": [],
      "stateMutability": "nonpayable",
      "type": "function"
    },
    {
      "inputs": [
        {
          "internalType": "address",
          "name": "owner",
          "type": "address"
        }
      ],
      "name": "balanceOf",
      "outputs": [
        {
          "internalType": "uint256",
          "name": "",
          "type": "uint256"
        }
      ],
      "stateMutability": "view",
      "type": "function"
    },
    {
      "inputs": [],
      "name": "baseURI",
      "outputs": [
        {
          "internalType": "string",
          "name": "",
          "type": "string"
        }
      ],
      "stateMutability": "view",
      "type": "function"
    },
    {
      "inputs": [
        {
          "internalType": "address",
          "name": "",
          "type": "address"
        }
      ],
      "name": "claimed",
      "outputs": [
        {
          "internalType": "bool",
          "name": "",
          "type": "bool"
        }
      ],
      "stateMutability": "view",
      "type": "function"
    },
    {
      "inputs": [],
      "name": "contractURI",
      "outputs": [
        {
          "internalType": "string",
          "name": "",
          "type": "string"
        }
      ],
      "stateMutability": "view",
      "type": "function"
    },
    {
      "inputs": [
        {
          "internalType": "uint256",
          "name": "tokenId",
          "type": "uint256"
        }
      ],
      "name": "getApproved",
      "outputs": [
        {
          "internalType": "address",
          "name": "",
          "type": "address"
        }
      ],
      "stateMutability": "view",
      "type": "function"
    },
    {
      "inputs": [
        {
          "internalType": "address",
          "name": "owner",
          "type": "address"
        },
        {
          "internalType": "address",
          "name": "operator",
          "type": "address"
        }
      ],
      "name": "isApprovedForAll",
      "outputs": [
        {
          "internalType": "bool",
          "name": "",
          "type": "bool"
        }
      ],
      "stateMutability": "view",
      "type": "function"
    },
    {
      "inputs": [],
      "name": "maxSupply",
      "outputs": [
        {
          "internalType": "uint256",
          "name": "",
          "type": "uint256"
        }
      ],
      "stateMutability": "view",
      "type": "function"
    },
    {
      "inputs": [
        {
          "internalType": "address",
          "name": "addressMint",
          "type": "address"
        },
        {
          "internalType": "uint256",
          "name": "tokenId",
          "type": "uint256"
        }
      ],
      "name": "mintTransfer",
      "outputs": [],
      "stateMutability": "nonpayable",
      "type": "function"
    },
    {
      "inputs": [
        {
          "internalType": "bytes32[]",
          "name": "merkleProof",
          "type": "bytes32[]"
        },
        {
          "internalType": "uint256",
          "name": "tokenId",
          "type": "uint256"
        }
      ],
      "name": "mintWhitelist",
      "outputs": [],
      "stateMutability": "nonpayable",
      "type": "function"
    },
    {
      "inputs": [],
      "name": "name",
      "outputs": [
        {
          "internalType": "string",
          "name": "",
          "type": "string"
        }
      ],
      "stateMutability": "view",
      "type": "function"
    },
    {
      "inputs": [],
      "name": "owner",
      "outputs": [
        {
          "internalType": "address",
          "name": "",
          "type": "address"
        }
      ],
      "stateMutability": "view",
      "type": "function"
    },
    {
      "inputs": [
        {
          "internalType": "uint256",
          "name": "tokenId",
          "type": "uint256"
        }
      ],
      "name": "ownerOf",
      "outputs": [
        {
          "internalType": "address",
          "name": "",
          "type": "address"
        }
      ],
      "stateMutability": "view",
      "type": "function"
    },
    {
      "inputs": [],
      "name": "renounceOwnership",
      "outputs": [],
      "stateMutability": "nonpayable",
      "type": "function"
    },
    {
      "inputs": [
        {
          "internalType": "address",
          "name": "from",
          "type": "address"
        },
        {
          "internalType": "address",
          "name": "to",
          "type": "address"
        },
        {
          "internalType": "uint256",
          "name": "tokenId",
          "type": "uint256"
        }
      ],
      "name": "safeTransferFrom",
      "outputs": [],
      "stateMutability": "nonpayable",
      "type": "function"
    },
    {
      "inputs": [
        {
          "internalType": "address",
          "name": "from",
          "type": "address"
        },
        {
          "internalType": "address",
          "name": "to",
          "type": "address"
        },
        {
          "internalType": "uint256",
          "name": "tokenId",
          "type": "uint256"
        },
        {
          "internalType": "bytes",
          "name": "data",
          "type": "bytes"
        }
      ],
      "name": "safeTransferFrom",
      "outputs": [],
      "stateMutability": "nonpayable",
      "type": "function"
    },
    {
      "inputs": [
        {
          "internalType": "address",
          "name": "operator",
          "type": "address"
        },
        {
          "internalType": "bool",
          "name": "approved",
          "type": "bool"
        }
      ],
      "name": "setApprovalForAll",
      "outputs": [],
      "stateMutability": "nonpayable",
      "type": "function"
    },
    {
      "inputs": [
        {
          "internalType": "string",
          "name": "_baseURI",
          "type": "string"
        }
      ],
      "name": "setBaseURI",
      "outputs": [],
      "stateMutability": "nonpayable",
      "type": "function"
    },
    {
      "inputs": [
        {
          "internalType": "bytes32",
          "name": "merkleRoot",
          "type": "bytes32"
        }
      ],
      "name": "setWhitelistMerkleRoot",
      "outputs": [],
      "stateMutability": "nonpayable",
      "type": "function"
    },
    {
      "inputs": [
        {
          "internalType": "bytes4",
          "name": "interfaceId",
          "type": "bytes4"
        }
      ],
      "name": "supportsInterface",
      "outputs": [
        {
          "internalType": "bool",
          "name": "",
          "type": "bool"
        }
      ],
      "stateMutability": "view",
      "type": "function"
    },
    {
      "inputs": [],
      "name": "symbol",
      "outputs": [
        {
          "internalType": "string",
          "name": "",
          "type": "string"
        }
      ],
      "stateMutability": "view",
      "type": "function"
    },
    {
      "inputs": [
        {
          "internalType": "address",
          "name": "",
          "type": "address"
        }
      ],
      "name": "tokenAvatar",
      "outputs": [
        {
          "internalType": "uint256",
          "name": "",
          "type": "uint256"
        }
      ],
      "stateMutability": "view",
      "type": "function"
    },
    {
      "inputs": [],
      "name": "tokenCount",
      "outputs": [
        {
          "internalType": "uint256",
          "name": "",
          "type": "uint256"
        }
      ],
      "stateMutability": "view",
      "type": "function"
    },
    {
      "inputs": [
        {
          "internalType": "uint256",
          "name": "tokenId",
          "type": "uint256"
        }
      ],
      "name": "tokenURI",
      "outputs": [
        {
          "internalType": "string",
          "name": "",
          "type": "string"
        }
      ],
      "stateMutability": "view",
      "type": "function"
    },
    {
      "inputs": [
        {
          "internalType": "address",
          "name": "from",
          "type": "address"
        },
        {
          "internalType": "address",
          "name": "to",
          "type": "address"
        },
        {
          "internalType": "uint256",
          "name": "tokenId",
          "type": "uint256"
        }
      ],
      "name": "transferFrom",
      "outputs": [],
      "stateMutability": "nonpayable",
      "type": "function"
    },
    {
      "inputs": [
        {
          "internalType": "address",
          "name": "newOwner",
          "type": "address"
        }
      ],
      "name": "transferOwnership",
      "outputs": [],
      "stateMutability": "nonpayable",
      "type": "function"
    },
    {
      "inputs": [
        {
          "internalType": "bytes32[]",
          "name": "merkleProof",
          "type": "bytes32[]"
        }
      ],
      "name": "verifyMerkleTree",
      "outputs": [
        {
          "internalType": "bool",
          "name": "",
          "type": "bool"
        }
      ],
      "stateMutability": "view",
      "type": "function"
    },
    {
      "inputs": [],
      "name": "whitelistMerkleRoot",
      "outputs": [
        {
          "internalType": "bytes32",
          "name": "",
          "type": "bytes32"
        }
      ],
      "stateMutability": "view",
      "type": "function"
    }
  ],
  "bytecode": "0x60a06040526101996080908152506000600b553480156200001f57600080fd5b5060405162003f7e38038062003f7e83398181016040528101906200004591906200043a565b6040518060400160405280600a81526020017f34303920414d49474f53000000000000000000000000000000000000000000008152506040518060400160405280600581526020017f414d49474f0000000000000000000000000000000000000000000000000000008152508160009080519060200190620000c992919062000318565b508060019080519060200190620000e292919062000318565b50505062000105620000f96200013760201b60201c565b6200013f60201b60201c565b60016008819055506200011e826200020560201b60201c565b6200012f816200023160201b60201c565b5050620006a0565b600033905090565b6000600760009054906101000a900473ffffffffffffffffffffffffffffffffffffffff16905081600760006101000a81548173ffffffffffffffffffffffffffffffffffffffff021916908373ffffffffffffffffffffffffffffffffffffffff1602179055508173ffffffffffffffffffffffffffffffffffffffff168173ffffffffffffffffffffffffffffffffffffffff167f8be0079c531659141344cd1fd0a4f28419497f9722a3daafe3b4186f6b6457e060405160405180910390a35050565b620002156200025d60201b60201c565b80600a90805190602001906200022d92919062000318565b5050565b620002416200025d60201b60201c565b80600990805190602001906200025992919062000318565b5050565b6200026d6200013760201b60201c565b73ffffffffffffffffffffffffffffffffffffffff1662000293620002ee60201b60201c565b73ffffffffffffffffffffffffffffffffffffffff1614620002ec576040517f08c379a0000000000000000000000000000000000000000000000000000000008152600401620002e390620004d4565b60405180910390fd5b565b6000600760009054906101000a900473ffffffffffffffffffffffffffffffffffffffff16905090565b82805462000326906200059c565b90600052602060002090601f0160209004810192826200034a576000855562000396565b82601f106200036557805160ff191683800117855562000396565b8280016001018555821562000396579182015b828111156200039557825182559160200191906001019062000378565b5b509050620003a59190620003a9565b5090565b5b80821115620003c4576000816000905550600101620003aa565b5090565b6000620003df620003d9846200051f565b620004f6565b905082815260208101848484011115620003f857600080fd5b6200040584828562000566565b509392505050565b600082601f8301126200041f57600080fd5b815162000431848260208601620003c8565b91505092915050565b600080604083850312156200044e57600080fd5b600083015167ffffffffffffffff8111156200046957600080fd5b62000477858286016200040d565b925050602083015167ffffffffffffffff8111156200049557600080fd5b620004a3858286016200040d565b9150509250929050565b6000620004bc60208362000555565b9150620004c98262000677565b602082019050919050565b60006020820190508181036000830152620004ef81620004ad565b9050919050565b60006200050262000515565b9050620005108282620005d2565b919050565b6000604051905090565b600067ffffffffffffffff8211156200053d576200053c62000637565b5b620005488262000666565b9050602081019050919050565b600082825260208201905092915050565b60005b838110156200058657808201518184015260208101905062000569565b8381111562000596576000848401525b50505050565b60006002820490506001821680620005b557607f821691505b60208210811415620005cc57620005cb62000608565b5b50919050565b620005dd8262000666565b810181811067ffffffffffffffff82111715620005ff57620005fe62000637565b5b80604052505050565b7f4e487b7100000000000000000000000000000000000000000000000000000000600052602260045260246000fd5b7f4e487b7100000000000000000000000000000000000000000000000000000000600052604160045260246000fd5b6000601f19601f8301169050919050565b7f4f776e61626c653a2063616c6c6572206973206e6f7420746865206f776e6572600082015250565b6080516138b4620006ca60003960008181610d8401528181611095015261125601526138b46000f3fe608060405234801561001057600080fd5b50600436106101c45760003560e01c806395d89b41116100f9578063c349c93e11610097578063d5abeb0111610071578063d5abeb0114610503578063e8a3d48514610521578063e985e9c51461053f578063f2fde38b1461056f576101c4565b8063c349c93e14610487578063c87b56dd146104a3578063c884ef83146104d3576101c4565b8063a6d612f9116100d3578063a6d612f914610415578063aa98e0c614610431578063b88d4fde1461044f578063bd32fb661461046b576101c4565b806395d89b41146103bd5780639f181b5e146103db578063a22cb465146103f9576101c4565b806355f804b3116101665780636c0360eb116101405780636c0360eb1461034757806370a0823114610365578063715018a6146103955780638da5cb5b1461039f576101c4565b806355f804b3146102cb5780635de3c719146102e75780636352211e14610317576101c4565b8063095ea7b3116101a2578063095ea7b314610247578063201bebe31461026357806323b872dd1461029357806342842e0e146102af576101c4565b806301ffc9a7146101c957806306fdde03146101f9578063081812fc14610217575b600080fd5b6101e360048036038101906101de91906126d5565b61058b565b6040516101f09190612c50565b60405180910390f35b61020161066d565b60405161020e9190612c86565b60405180910390f35b610231600480360381019061022c9190612768565b6106ff565b60405161023e9190612be9565b60405180910390f35b610261600480360381019061025c91906125d3565b610745565b005b61027d60048036038101906102789190612468565b61085d565b60405161028a9190612ee8565b60405180910390f35b6102ad60048036038101906102a891906124cd565b610875565b005b6102c960048036038101906102c491906124cd565b6108d5565b005b6102e560048036038101906102e09190612727565b6108f5565b005b61030160048036038101906102fc919061260f565b610917565b60405161030e9190612c50565b60405180910390f35b610331600480360381019061032c9190612768565b61099a565b60405161033e9190612be9565b60405180910390f35b61034f610a4c565b60405161035c9190612c86565b60405180910390f35b61037f600480360381019061037a9190612468565b610ada565b60405161038c9190612ee8565b60405180910390f35b61039d610b92565b005b6103a7610ba6565b6040516103b49190612be9565b60405180910390f35b6103c5610bd0565b6040516103d29190612c86565b60405180910390f35b6103e3610c62565b6040516103f09190612ee8565b60405180910390f35b610413600480360381019061040e9190612597565b610c68565b005b61042f600480360381019061042a9190612654565b610c7e565b005b610439610fcb565b6040516104469190612c6b565b60405180910390f35b6104696004803603810190610464919061251c565b610fd1565b005b610485600480360381019061048091906126ac565b611033565b005b6104a1600480360381019061049c91906125d3565b611045565b005b6104bd60048036038101906104b89190612768565b6111b8565b6040516104ca9190612c86565b60405180910390f35b6104ed60048036038101906104e89190612468565b611234565b6040516104fa9190612c50565b60405180910390f35b61050b611254565b6040516105189190612ee8565b60405180910390f35b610529611278565b6040516105369190612c86565b60405180910390f35b61055960048036038101906105549190612491565b61130a565b6040516105669190612c50565b60405180910390f35b61058960048036038101906105849190612468565b61139e565b005b60007f80ac58cd000000000000000000000000000000000000000000000000000000007bffffffffffffffffffffffffffffffffffffffffffffffffffffffff1916827bffffffffffffffffffffffffffffffffffffffffffffffffffffffff1916148061065657507f5b5e139f000000000000000000000000000000000000000000000000000000007bffffffffffffffffffffffffffffffffffffffffffffffffffffffff1916827bffffffffffffffffffffffffffffffffffffffffffffffffffffffff1916145b80610666575061066582611422565b5b9050919050565b60606000805461067c9061315d565b80601f01602080910402602001604051908101604052809291908181526020018280546106a89061315d565b80156106f55780601f106106ca576101008083540402835291602001916106f5565b820191906000526020600020905b8154815290600101906020018083116106d857829003601f168201915b5050505050905090565b600061070a8261148c565b6004600083815260200190815260200160002060009054906101000a900473ffffffffffffffffffffffffffffffffffffffff169050919050565b60006107508261099a565b90508073ffffffffffffffffffffffffffffffffffffffff168373ffffffffffffffffffffffffffffffffffffffff1614156107c1576040517f08c379a00000000000000000000000000000000000000000000000000000000081526004016107b890612e88565b60405180910390fd5b8073ffffffffffffffffffffffffffffffffffffffff166107e06114d7565b73ffffffffffffffffffffffffffffffffffffffff16148061080f575061080e816108096114d7565b61130a565b5b61084e576040517f08c379a000000000000000000000000000000000000000000000000000000000815260040161084590612dc8565b60405180910390fd5b61085883836114df565b505050565b600e6020528060005260406000206000915090505481565b6108866108806114d7565b82611598565b6108c5576040517f08c379a00000000000000000000000000000000000000000000000000000000081526004016108bc90612ea8565b60405180910390fd5b6108d083838361162d565b505050565b6108f083838360405180602001604052806000815250610fd1565b505050565b6108fd611894565b80600a908051906020019061091392919061222d565b5050565b6000803360405160200161092b9190612b9f565b604051602081830303815290604052805190602001209050610991848480806020026020016040519081016040528093929190818152602001838360200280828437600081840152601f19601f82011690508083019250505050505050600c5483611912565b91505092915050565b6000806002600084815260200190815260200160002060009054906101000a900473ffffffffffffffffffffffffffffffffffffffff169050600073ffffffffffffffffffffffffffffffffffffffff168173ffffffffffffffffffffffffffffffffffffffff161415610a43576040517f08c379a0000000000000000000000000000000000000000000000000000000008152600401610a3a90612e68565b60405180910390fd5b80915050919050565b600a8054610a599061315d565b80601f0160208091040260200160405190810160405280929190818152602001828054610a859061315d565b8015610ad25780601f10610aa757610100808354040283529160200191610ad2565b820191906000526020600020905b815481529060010190602001808311610ab557829003601f168201915b505050505081565b60008073ffffffffffffffffffffffffffffffffffffffff168273ffffffffffffffffffffffffffffffffffffffff161415610b4b576040517f08c379a0000000000000000000000000000000000000000000000000000000008152600401610b4290612da8565b60405180910390fd5b600360008373ffffffffffffffffffffffffffffffffffffffff1673ffffffffffffffffffffffffffffffffffffffff168152602001908152602001600020549050919050565b610b9a611894565b610ba46000611929565b565b6000600760009054906101000a900473ffffffffffffffffffffffffffffffffffffffff16905090565b606060018054610bdf9061315d565b80601f0160208091040260200160405190810160405280929190818152602001828054610c0b9061315d565b8015610c585780601f10610c2d57610100808354040283529160200191610c58565b820191906000526020600020905b815481529060010190602001808311610c3b57829003601f168201915b5050505050905090565b600b5481565b610c7a610c736114d7565b83836119ef565b5050565b8282600c54610cf5838380806020026020016040519081016040528093929190818152602001838360200280828437600081840152601f19601f820116905080830192505050505050508233604051602001610cda9190612b9f565b60405160208183030381529060405280519060200120611912565b610d34576040517f08c379a0000000000000000000000000000000000000000000000000000000008152600401610d2b90612e48565b60405180910390fd5b60026008541415610d7a576040517f08c379a0000000000000000000000000000000000000000000000000000000008152600401610d7190612ec8565b60405180910390fd5b60026008819055507f0000000000000000000000000000000000000000000000000000000000000000600b541115610de7576040517f08c379a0000000000000000000000000000000000000000000000000000000008152600401610dde90612e08565b60405180910390fd5b600d60003373ffffffffffffffffffffffffffffffffffffffff1673ffffffffffffffffffffffffffffffffffffffff16815260200190815260200160002060009054906101000a900460ff1615610e74576040517f08c379a0000000000000000000000000000000000000000000000000000000008152600401610e6b90612d88565b60405180910390fd5b600b6000815480929190610e87906131c0565b9190505550610e963385611b5c565b3373ffffffffffffffffffffffffffffffffffffffff16610eb5610ba6565b73ffffffffffffffffffffffffffffffffffffffff1614610f29576001600d60003373ffffffffffffffffffffffffffffffffffffffff1673ffffffffffffffffffffffffffffffffffffffff16815260200190815260200160002060006101000a81548160ff0219169083151502179055505b83600e60003373ffffffffffffffffffffffffffffffffffffffff1673ffffffffffffffffffffffffffffffffffffffff168152602001908152602001600020819055503373ffffffffffffffffffffffffffffffffffffffff167fdee6961c63e1e04aaaf4f5d72d14927b189488763179688429797ee6a104cf3885604051610fb39190612ee8565b60405180910390a26001600881905550505050505050565b600c5481565b610fe2610fdc6114d7565b83611598565b611021576040517f08c379a000000000000000000000000000000000000000000000000000000000815260040161101890612ea8565b60405180910390fd5b61102d84848484611d36565b50505050565b61103b611894565b80600c8190555050565b6002600854141561108b576040517f08c379a000000000000000000000000000000000000000000000000000000000815260040161108290612ec8565b60405180910390fd5b60026008819055507f0000000000000000000000000000000000000000000000000000000000000000600b5411156110f8576040517f08c379a00000000000000000000000000000000000000000000000000000000081526004016110ef90612e08565b60405180910390fd5b600b600081548092919061110b906131c0565b919050555061111a8282611b5c565b80600e60003373ffffffffffffffffffffffffffffffffffffffff1673ffffffffffffffffffffffffffffffffffffffff168152602001908152602001600020819055508173ffffffffffffffffffffffffffffffffffffffff167fdee6961c63e1e04aaaf4f5d72d14927b189488763179688429797ee6a104cf38826040516111a49190612ee8565b60405180910390a260016008819055505050565b60606111c382611d92565b611202576040517f08c379a00000000000000000000000000000000000000000000000000000000081526004016111f990612d28565b60405180910390fd5b600a61120d83611dfe565b60405160200161121e929190612bba565b6040516020818303038152906040529050919050565b600d6020528060005260406000206000915054906101000a900460ff1681565b7f000000000000000000000000000000000000000000000000000000000000000081565b6060600980546112879061315d565b80601f01602080910402602001604051908101604052809291908181526020018280546112b39061315d565b80156113005780601f106112d557610100808354040283529160200191611300565b820191906000526020600020905b8154815290600101906020018083116112e357829003601f168201915b5050505050905090565b6000600560008473ffffffffffffffffffffffffffffffffffffffff1673ffffffffffffffffffffffffffffffffffffffff16815260200190815260200160002060008373ffffffffffffffffffffffffffffffffffffffff1673ffffffffffffffffffffffffffffffffffffffff16815260200190815260200160002060009054906101000a900460ff16905092915050565b6113a6611894565b600073ffffffffffffffffffffffffffffffffffffffff168173ffffffffffffffffffffffffffffffffffffffff161415611416576040517f08c379a000000000000000000000000000000000000000000000000000000000815260040161140d90612cc8565b60405180910390fd5b61141f81611929565b50565b60007f01ffc9a7000000000000000000000000000000000000000000000000000000007bffffffffffffffffffffffffffffffffffffffffffffffffffffffff1916827bffffffffffffffffffffffffffffffffffffffffffffffffffffffff1916149050919050565b61149581611d92565b6114d4576040517f08c379a00000000000000000000000000000000000000000000000000000000081526004016114cb90612e68565b60405180910390fd5b50565b600033905090565b816004600083815260200190815260200160002060006101000a81548173ffffffffffffffffffffffffffffffffffffffff021916908373ffffffffffffffffffffffffffffffffffffffff160217905550808273ffffffffffffffffffffffffffffffffffffffff166115528361099a565b73ffffffffffffffffffffffffffffffffffffffff167f8c5be1e5ebec7d5bd14f71427d1e84f3dd0314c0f7b2291e5b200ac8c7c3b92560405160405180910390a45050565b6000806115a48361099a565b90508073ffffffffffffffffffffffffffffffffffffffff168473ffffffffffffffffffffffffffffffffffffffff1614806115e657506115e5818561130a565b5b8061162457508373ffffffffffffffffffffffffffffffffffffffff1661160c846106ff565b73ffffffffffffffffffffffffffffffffffffffff16145b91505092915050565b8273ffffffffffffffffffffffffffffffffffffffff1661164d8261099a565b73ffffffffffffffffffffffffffffffffffffffff16146116a3576040517f08c379a000000000000000000000000000000000000000000000000000000000815260040161169a90612ce8565b60405180910390fd5b600073ffffffffffffffffffffffffffffffffffffffff168273ffffffffffffffffffffffffffffffffffffffff161415611713576040517f08c379a000000000000000000000000000000000000000000000000000000000815260040161170a90612d48565b60405180910390fd5b61171e838383611fab565b6117296000826114df565b6001600360008573ffffffffffffffffffffffffffffffffffffffff1673ffffffffffffffffffffffffffffffffffffffff16815260200190815260200160002060008282546117799190613069565b925050819055506001600360008473ffffffffffffffffffffffffffffffffffffffff1673ffffffffffffffffffffffffffffffffffffffff16815260200190815260200160002060008282546117d09190612fe2565b92505081905550816002600083815260200190815260200160002060006101000a81548173ffffffffffffffffffffffffffffffffffffffff021916908373ffffffffffffffffffffffffffffffffffffffff160217905550808273ffffffffffffffffffffffffffffffffffffffff168473ffffffffffffffffffffffffffffffffffffffff167fddf252ad1be2c89b69c2b068fc378daa952ba7f163c4a11628f55a4df523b3ef60405160405180910390a461188f838383611fb0565b505050565b61189c6114d7565b73ffffffffffffffffffffffffffffffffffffffff166118ba610ba6565b73ffffffffffffffffffffffffffffffffffffffff1614611910576040517f08c379a000000000000000000000000000000000000000000000000000000000815260040161190790612e28565b60405180910390fd5b565b60008261191f8584611fb5565b1490509392505050565b6000600760009054906101000a900473ffffffffffffffffffffffffffffffffffffffff16905081600760006101000a81548173ffffffffffffffffffffffffffffffffffffffff021916908373ffffffffffffffffffffffffffffffffffffffff1602179055508173ffffffffffffffffffffffffffffffffffffffff168173ffffffffffffffffffffffffffffffffffffffff167f8be0079c531659141344cd1fd0a4f28419497f9722a3daafe3b4186f6b6457e060405160405180910390a35050565b8173ffffffffffffffffffffffffffffffffffffffff168373ffffffffffffffffffffffffffffffffffffffff161415611a5e576040517f08c379a0000000000000000000000000000000000000000000000000000000008152600401611a5590612d68565b60405180910390fd5b80600560008573ffffffffffffffffffffffffffffffffffffffff1673ffffffffffffffffffffffffffffffffffffffff16815260200190815260200160002060008473ffffffffffffffffffffffffffffffffffffffff1673ffffffffffffffffffffffffffffffffffffffff16815260200190815260200160002060006101000a81548160ff0219169083151502179055508173ffffffffffffffffffffffffffffffffffffffff168373ffffffffffffffffffffffffffffffffffffffff167f17307eab39ab6107e8899845ad3d59bd9653f200f220920489ca2b5937696c3183604051611b4f9190612c50565b60405180910390a3505050565b600073ffffffffffffffffffffffffffffffffffffffff168273ffffffffffffffffffffffffffffffffffffffff161415611bcc576040517f08c379a0000000000000000000000000000000000000000000000000000000008152600401611bc390612de8565b60405180910390fd5b611bd581611d92565b15611c15576040517f08c379a0000000000000000000000000000000000000000000000000000000008152600401611c0c90612d08565b60405180910390fd5b611c2160008383611fab565b6001600360008473ffffffffffffffffffffffffffffffffffffffff1673ffffffffffffffffffffffffffffffffffffffff1681526020019081526020016000206000828254611c719190612fe2565b92505081905550816002600083815260200190815260200160002060006101000a81548173ffffffffffffffffffffffffffffffffffffffff021916908373ffffffffffffffffffffffffffffffffffffffff160217905550808273ffffffffffffffffffffffffffffffffffffffff16600073ffffffffffffffffffffffffffffffffffffffff167fddf252ad1be2c89b69c2b068fc378daa952ba7f163c4a11628f55a4df523b3ef60405160405180910390a4611d3260008383611fb0565b5050565b611d4184848461162d565b611d4d84848484612031565b611d8c576040517f08c379a0000000000000000000000000000000000000000000000000000000008152600401611d8390612ca8565b60405180910390fd5b50505050565b60008073ffffffffffffffffffffffffffffffffffffffff166002600084815260200190815260200160002060009054906101000a900473ffffffffffffffffffffffffffffffffffffffff1673ffffffffffffffffffffffffffffffffffffffff1614159050919050565b60606000821415611e46576040518060400160405280600181526020017f30000000000000000000000000000000000000000000000000000000000000008152509050611fa6565b600082905060005b60008214611e78578080611e61906131c0565b915050600a82611e719190613038565b9150611e4e565b60008167ffffffffffffffff811115611eba577f4e487b7100000000000000000000000000000000000000000000000000000000600052604160045260246000fd5b6040519080825280601f01601f191660200182016040528015611eec5781602001600182028036833780820191505090505b5090505b60008514611f9f57600182611f059190613069565b9150600a85611f14919061322d565b6030611f209190612fe2565b60f81b818381518110611f5c577f4e487b7100000000000000000000000000000000000000000000000000000000600052603260045260246000fd5b60200101907effffffffffffffffffffffffffffffffffffffffffffffffffffffffffffff1916908160001a905350600a85611f989190613038565b9450611ef0565b8093505050505b919050565b505050565b505050565b60008082905060005b84518110156120265761201182868381518110612004577f4e487b7100000000000000000000000000000000000000000000000000000000600052603260045260246000fd5b60200260200101516121c8565b9150808061201e906131c0565b915050611fbe565b508091505092915050565b60006120528473ffffffffffffffffffffffffffffffffffffffff166121f3565b156121bb578373ffffffffffffffffffffffffffffffffffffffff1663150b7a0261207b6114d7565b8786866040518563ffffffff1660e01b815260040161209d9493929190612c04565b602060405180830381600087803b1580156120b757600080fd5b505af19250505080156120e857506040513d601f19601f820116820180604052508101906120e591906126fe565b60015b61216b573d8060008114612118576040519150601f19603f3d011682016040523d82523d6000602084013e61211d565b606091505b50600081511415612163576040517f08c379a000000000000000000000000000000000000000000000000000000000815260040161215a90612ca8565b60405180910390fd5b805181602001fd5b63150b7a0260e01b7bffffffffffffffffffffffffffffffffffffffffffffffffffffffff1916817bffffffffffffffffffffffffffffffffffffffffffffffffffffffff1916149150506121c0565b600190505b949350505050565b60008183106121e0576121db8284612216565b6121eb565b6121ea8383612216565b5b905092915050565b6000808273ffffffffffffffffffffffffffffffffffffffff163b119050919050565b600082600052816020526040600020905092915050565b8280546122399061315d565b90600052602060002090601f01602090048101928261225b57600085556122a2565b82601f1061227457805160ff19168380011785556122a2565b828001600101855582156122a2579182015b828111156122a1578251825591602001919060010190612286565b5b5090506122af91906122b3565b5090565b5b808211156122cc5760008160009055506001016122b4565b5090565b60006122e36122de84612f28565b612f03565b9050828152602081018484840111156122fb57600080fd5b61230684828561311b565b509392505050565b600061232161231c84612f59565b612f03565b90508281526020810184848401111561233957600080fd5b61234484828561311b565b509392505050565b60008135905061235b8161380b565b92915050565b60008083601f84011261237357600080fd5b8235905067ffffffffffffffff81111561238c57600080fd5b6020830191508360208202830111156123a457600080fd5b9250929050565b6000813590506123ba81613822565b92915050565b6000813590506123cf81613839565b92915050565b6000813590506123e481613850565b92915050565b6000815190506123f981613850565b92915050565b600082601f83011261241057600080fd5b81356124208482602086016122d0565b91505092915050565b600082601f83011261243a57600080fd5b813561244a84826020860161230e565b91505092915050565b60008135905061246281613867565b92915050565b60006020828403121561247a57600080fd5b60006124888482850161234c565b91505092915050565b600080604083850312156124a457600080fd5b60006124b28582860161234c565b92505060206124c38582860161234c565b9150509250929050565b6000806000606084860312156124e257600080fd5b60006124f08682870161234c565b93505060206125018682870161234c565b925050604061251286828701612453565b9150509250925092565b6000806000806080858703121561253257600080fd5b60006125408782880161234c565b94505060206125518782880161234c565b935050604061256287828801612453565b925050606085013567ffffffffffffffff81111561257f57600080fd5b61258b878288016123ff565b91505092959194509250565b600080604083850312156125aa57600080fd5b60006125b88582860161234c565b92505060206125c9858286016123ab565b9150509250929050565b600080604083850312156125e657600080fd5b60006125f48582860161234c565b925050602061260585828601612453565b9150509250929050565b6000806020838503121561262257600080fd5b600083013567ffffffffffffffff81111561263c57600080fd5b61264885828601612361565b92509250509250929050565b60008060006040848603121561266957600080fd5b600084013567ffffffffffffffff81111561268357600080fd5b61268f86828701612361565b935093505060206126a286828701612453565b9150509250925092565b6000602082840312156126be57600080fd5b60006126cc848285016123c0565b91505092915050565b6000602082840312156126e757600080fd5b60006126f5848285016123d5565b91505092915050565b60006020828403121561271057600080fd5b600061271e848285016123ea565b91505092915050565b60006020828403121561273957600080fd5b600082013567ffffffffffffffff81111561275357600080fd5b61275f84828501612429565b91505092915050565b60006020828403121561277a57600080fd5b600061278884828501612453565b91505092915050565b61279a8161309d565b82525050565b6127b16127ac8261309d565b613209565b82525050565b6127c0816130af565b82525050565b6127cf816130bb565b82525050565b60006127e082612f9f565b6127ea8185612fb5565b93506127fa81856020860161312a565b6128038161331a565b840191505092915050565b600061281982612faa565b6128238185612fc6565b935061283381856020860161312a565b61283c8161331a565b840191505092915050565b600061285282612faa565b61285c8185612fd7565b935061286c81856020860161312a565b80840191505092915050565b600081546128858161315d565b61288f8186612fd7565b945060018216600081146128aa57600181146128bb576128ee565b60ff198316865281860193506128ee565b6128c485612f8a565b60005b838110156128e6578154818901526001820191506020810190506128c7565b838801955050505b50505092915050565b6000612904603283612fc6565b915061290f82613338565b604082019050919050565b6000612927602683612fc6565b915061293282613387565b604082019050919050565b600061294a602583612fc6565b9150612955826133d6565b604082019050919050565b600061296d601c83612fc6565b915061297882613425565b602082019050919050565b6000612990602283612fc6565b915061299b8261344e565b604082019050919050565b60006129b3602483612fc6565b91506129be8261349d565b604082019050919050565b60006129d6601983612fc6565b91506129e1826134ec565b602082019050919050565b60006129f9602583612fc6565b9150612a0482613515565b604082019050919050565b6000612a1c602983612fc6565b9150612a2782613564565b604082019050919050565b6000612a3f603e83612fc6565b9150612a4a826135b3565b604082019050919050565b6000612a62602083612fc6565b9150612a6d82613602565b602082019050919050565b6000612a85603283612fc6565b9150612a908261362b565b604082019050919050565b6000612aa8600583612fd7565b9150612ab38261367a565b600582019050919050565b6000612acb602083612fc6565b9150612ad6826136a3565b602082019050919050565b6000612aee602383612fc6565b9150612af9826136cc565b604082019050919050565b6000612b11601883612fc6565b9150612b1c8261371b565b602082019050919050565b6000612b34602183612fc6565b9150612b3f82613744565b604082019050919050565b6000612b57602e83612fc6565b9150612b6282613793565b604082019050919050565b6000612b7a601f83612fc6565b9150612b85826137e2565b602082019050919050565b612b9981613111565b82525050565b6000612bab82846127a0565b60148201915081905092915050565b6000612bc68285612878565b9150612bd28284612847565b9150612bdd82612a9b565b91508190509392505050565b6000602082019050612bfe6000830184612791565b92915050565b6000608082019050612c196000830187612791565b612c266020830186612791565b612c336040830185612b90565b8181036060830152612c4581846127d5565b905095945050505050565b6000602082019050612c6560008301846127b7565b92915050565b6000602082019050612c8060008301846127c6565b92915050565b60006020820190508181036000830152612ca0818461280e565b905092915050565b60006020820190508181036000830152612cc1816128f7565b9050919050565b60006020820190508181036000830152612ce18161291a565b9050919050565b60006020820190508181036000830152612d018161293d565b9050919050565b60006020820190508181036000830152612d2181612960565b9050919050565b60006020820190508181036000830152612d4181612983565b9050919050565b60006020820190508181036000830152612d61816129a6565b9050919050565b60006020820190508181036000830152612d81816129c9565b9050919050565b60006020820190508181036000830152612da1816129ec565b9050919050565b60006020820190508181036000830152612dc181612a0f565b9050919050565b60006020820190508181036000830152612de181612a32565b9050919050565b60006020820190508181036000830152612e0181612a55565b9050919050565b60006020820190508181036000830152612e2181612a78565b9050919050565b60006020820190508181036000830152612e4181612abe565b9050919050565b60006020820190508181036000830152612e6181612ae1565b9050919050565b60006020820190508181036000830152612e8181612b04565b9050919050565b60006020820190508181036000830152612ea181612b27565b9050919050565b60006020820190508181036000830152612ec181612b4a565b9050919050565b60006020820190508181036000830152612ee181612b6d565b9050919050565b6000602082019050612efd6000830184612b90565b92915050565b6000612f0d612f1e565b9050612f19828261318f565b919050565b6000604051905090565b600067ffffffffffffffff821115612f4357612f426132eb565b5b612f4c8261331a565b9050602081019050919050565b600067ffffffffffffffff821115612f7457612f736132eb565b5b612f7d8261331a565b9050602081019050919050565b60008190508160005260206000209050919050565b600081519050919050565b600081519050919050565b600082825260208201905092915050565b600082825260208201905092915050565b600081905092915050565b6000612fed82613111565b9150612ff883613111565b9250827fffffffffffffffffffffffffffffffffffffffffffffffffffffffffffffffff0382111561302d5761302c61325e565b5b828201905092915050565b600061304382613111565b915061304e83613111565b92508261305e5761305d61328d565b5b828204905092915050565b600061307482613111565b915061307f83613111565b9250828210156130925761309161325e565b5b828203905092915050565b60006130a8826130f1565b9050919050565b60008115159050919050565b6000819050919050565b60007fffffffff0000000000000000000000000000000000000000000000000000000082169050919050565b600073ffffffffffffffffffffffffffffffffffffffff82169050919050565b6000819050919050565b82818337600083830152505050565b60005b8381101561314857808201518184015260208101905061312d565b83811115613157576000848401525b50505050565b6000600282049050600182168061317557607f821691505b60208210811415613189576131886132bc565b5b50919050565b6131988261331a565b810181811067ffffffffffffffff821117156131b7576131b66132eb565b5b80604052505050565b60006131cb82613111565b91507fffffffffffffffffffffffffffffffffffffffffffffffffffffffffffffffff8214156131fe576131fd61325e565b5b600182019050919050565b60006132148261321b565b9050919050565b60006132268261332b565b9050919050565b600061323882613111565b915061324383613111565b9250826132535761325261328d565b5b828206905092915050565b7f4e487b7100000000000000000000000000000000000000000000000000000000600052601160045260246000fd5b7f4e487b7100000000000000000000000000000000000000000000000000000000600052601260045260246000fd5b7f4e487b7100000000000000000000000000000000000000000000000000000000600052602260045260246000fd5b7f4e487b7100000000000000000000000000000000000000000000000000000000600052604160045260246000fd5b6000601f19601f8301169050919050565b60008160601b9050919050565b7f4552433732313a207472616e7366657220746f206e6f6e20455243373231526560008201527f63656976657220696d706c656d656e7465720000000000000000000000000000602082015250565b7f4f776e61626c653a206e6577206f776e657220697320746865207a65726f206160008201527f6464726573730000000000000000000000000000000000000000000000000000602082015250565b7f4552433732313a207472616e736665722066726f6d20696e636f72726563742060008201527f6f776e6572000000000000000000000000000000000000000000000000000000602082015250565b7f4552433732313a20746f6b656e20616c7265616479206d696e74656400000000600082015250565b7f4572726f723a20517565727920666f72206e6f6e6578697374656e7420746f6b60008201527f656e000000000000000000000000000000000000000000000000000000000000602082015250565b7f4552433732313a207472616e7366657220746f20746865207a65726f2061646460008201527f7265737300000000000000000000000000000000000000000000000000000000602082015250565b7f4552433732313a20617070726f766520746f2063616c6c657200000000000000600082015250565b7f4f6e6c79206f6e6520746f6b656e20697320616c6c6f7765642070657220616460008201527f6472657373000000000000000000000000000000000000000000000000000000602082015250565b7f4552433732313a2061646472657373207a65726f206973206e6f74206120766160008201527f6c6964206f776e65720000000000000000000000000000000000000000000000602082015250565b7f4552433732313a20617070726f76652063616c6c6572206973206e6f7420746f60008201527f6b656e206f776e6572206e6f7220617070726f76656420666f7220616c6c0000602082015250565b7f4552433732313a206d696e7420746f20746865207a65726f2061646472657373600082015250565b7f4d6178696d756d206e756d626572206f6620746f6b656e7320616c6c6f77656460008201527f2077617320726561636865642028343039290000000000000000000000000000602082015250565b7f2e6a736f6e000000000000000000000000000000000000000000000000000000600082015250565b7f4f776e61626c653a2063616c6c6572206973206e6f7420746865206f776e6572600082015250565b7f4164647265737320646f6573206e6f7420657869737420696e2077686974656c60008201527f6973740000000000000000000000000000000000000000000000000000000000602082015250565b7f4552433732313a20696e76616c696420746f6b656e2049440000000000000000600082015250565b7f4552433732313a20617070726f76616c20746f2063757272656e74206f776e6560008201527f7200000000000000000000000000000000000000000000000000000000000000602082015250565b7f4552433732313a2063616c6c6572206973206e6f7420746f6b656e206f776e6560008201527f72206e6f7220617070726f766564000000000000000000000000000000000000602082015250565b7f5265656e7472616e637947756172643a207265656e7472616e742063616c6c00600082015250565b6138148161309d565b811461381f57600080fd5b50565b61382b816130af565b811461383657600080fd5b50565b613842816130bb565b811461384d57600080fd5b50565b613859816130c5565b811461386457600080fd5b50565b61387081613111565b811461387b57600080fd5b5056fea2646970667358221220d9b19a304e5b1ce094b0a8f1e6b189ed46f8bfbc379147cdc8cf4faab7fe077664736f6c63430008010033",
  "linkReferences": {},
  "deployedLinkReferences": {}
}